:020000020000FC
:020000005FC0DF
:1000C000DFEFD7BB29D0C39809E010E030D00AE0B9
:1000D00018E02DD00BE017E02AD00CE011E027D07B
:1000E0000FE010E024D018D003D016D008D0EBCF0A
:1000F00001E010E01CD003950830E1F70895A0E07E
:10010000B1E01B2F1CD01A2F1AD0B395B930C9F704
:1001100003D0A395A9F7089526E033E14EEA4A9566
:10012000F1F73A95E1F72A95D1F700C00895C49800
:10013000002E05D0012E03D0C49AC398089578E00C
:10014000C398000C10F0C29801C0C29AC39A7A9565
:10015000000000000000A1F70895204E8E80808EE0
:020160004E202F
:00000001FF
