:020000020000FC
:020000005FC0DF
:1000C000DFEFD7BB31D0C3980000B399FCCF09E074
:1000D00010E035D00AE018E032D00BE017E02FD066
:1000E0000CE011E02CD00FE010E029D0EEE8F1E0B8
:1000F00098E081E0082E34D0C895E39531D08395FF
:100100009A95C1F7E0CF01E010E019D003950830CF
:10011000E1F7089510E001E012D003950930E1F70E
:1001200003D01395C1F7089526E033E14EEA4A95CE
:10013000F1F73A95E1F72A95D1F700C00895C498F0
:100140000000B499FCCF002E0BD0012E09D0C49A28
:100150000000B49BFCCFC3980000B399FCCF089576
:1001600078E0C3980000B399FCCF000C28F0C29847
:100170000000B299FCCF04C0C29A0000B29BFCCF31
:10018000C39A0000B39BFCCF7A9559F70895204E8F
:060190008E80808E4E20DF
:00000001FF
